:10000000900300E493319F31B96003A380F590031E
:1000100006E49331AC31B9A3600280F59003157406
:10002000C0319FE49331AC31B9A3600280F57F58B1
:1000300011C4EFF56031AC7F5831B9742C31AC117B
:10004000C4EFF56131ACE560B43607E561B4310267
:100050001188E560B43907E561B43302119CE560AD
:10006000B43207E561B4380211B0900300E4933173
:100070009F31B96003A380F590031CE49331AC3148
:10008000B9A3600280F580FE7510FA7511FB751238
:10009000F97513F17514C375151431567510FB7588
:1000A00011327512FA7513BA7514C27515143156DA
:1000B0007510F97511E37512FA75136A7514C37525
:1000C00015B3315611D211F331143135BF580280B6
:1000D000F322C2B4E5B0540FFABA0E027F37BA0D5C
:1000E000027F34BA0B027F31BA07027F581201B97E
:1000F000D2B422C2B5E5B0540FFABA0E027F38BAB4
:100100000D027F35BA0B027F32BA07027F3012012F
:10011000B9D2B522C2B6E5B0540FFABA0E027F3991
:10012000BA0D027F36BA0B027F33BA07027F58122C
:0F01300001B9D2B622C2B7E5B0540FFABA0E0227
:10013F007F58BA0D027F58BA0B027F58BA07027F59
:10014F00581201B9D2B722D2A33166C2A3D2A431B9
:10015F0079C2A4318C80F075890185108C85118A44
:10016F00D28C308DFDC28CC28D2275890185128C87
:10017F0085138AD28C308DFDC28CC28D2275890178
:10018F0085148C85158AD28C308DFDC28CC28D2240
:10019F00F590C2A1C2A2D2A031B9C2A022F590D2CD
:1001AF00A1C2A2D2A031B9C2A0227BFA7CFFDCFE91
:0301BF00DBFA2246
:10030000380E010680003252204D414E4950554C66
:1003100041544F520028582C59292D00545259202D
:07032000414741494E210055
:00000001FF
